:100000000C945C000C94E6070C94E6070C94E6074D
:100010000C94E6070C94E6070C94E6070C94E607AC
:100020000C94E6070C94E6070C94E6070C94E6079C
:100030000C940C060C94E6070C94E6070C94E60767
:100040000C94E6070C94E6070C94E6070C94E6077C
:100050000C94E6070C94E6070C94E6070C94E6076C
:100060000C94E6070C94E6070C94E6070C94E6075C
:100070000C94E6070C94E6070C94E6070C94E6074C
:100080000C94E6070C94E6070C94E6070C94E6073C
:100090000C94E6070C94E6070C94E6070C94E6072C
:1000A0000C94E6070C94E6070C94E6070100012186
:1000B000000FDA012101228011241FBECFEFDAE008
:1000C000DEBFCDBFECEAF0E040E017C0B591A591EE
:1000D00035912591059107FD0CC095918591EF0112
:1000E000F92FE82F05900D92A217B307D9F7FE015B
:1000F00004C01D92A217B307E1F7E83BF40731F7FC
:0C0100000E9448030C948907F894FFCF7C
:10010C00FF920F931F93CF93DF936CEC7CEC89E6FB
:10011C000E94A50660E070E080E00E94BA078F3E66
:10012C009E4B49F06FEE7EEB80E090E00E94D3078F
:10013C00FF24F39408C0F12C06C08FE19EE40197D4
:10014C00F1F700C000008DE30E94380580FDF5CF6B
:10015C008AEB0E9438058C0160E070E080E60E941A
:10016C00280660E070E08AEB0E94280660E970E0E7
:10017C0080E60E942806C0E0D1E06A817B8188E19C
:10018C000E942806688579858EE10E9428066C817C
:10019C007D818AE30E9428066E817F818BED0E940F
:1001AC00280606C08FE19EE40197F1F700C000001D
:1001BC008BED0E9438059923ACF3FF20C9F088E33E
:1001CC000E943805C0E0D1E09A8B898B89E30E94AC
:1001DC0038059C8B8B8B8A819B819E8B8D8B188E8B
:1001EC001F8A8A819B819A8F898F0E94600502C029
:1001FC000E940C05C0E0D1E069897A8988E30E94ED
:10020C0028066B897C8989E30E9428066D897E8982
:10021C0080E10E9428066F89788D87E10E9428066C
:10022C00698D7A8D83E20E942806B8018AEB0E94C0
:10023C0028066F85788987E30E9428066F85788960
:10024C0087E30E9428066F85788987E30E94280639
:10025C0080E00E943805BC016D7F80E00E94ED05B6
:0C026C00DF91CF911F910F91FF9008953A
:10027800CF93DF93CDB7DEB7E4970FB6F894DEBF20
:100288000FBECDBF8DED9DED9C8F8B8FE0E0F1E033
:10029800828193819E8F8D8F8085918598A38F8F82
:1002A800848195819AA389A3868197819CA38BA336
:1002B800838D948D9EA38DA3858D968D98A78FA3EE
:1002C800878D90A19AA789A7818992899CA78BA7D6
:1002D800838994899EA78DA78589968998AB8FA7CE
:1002E8008789908D9AAB89AB818D928D9CAB8BABB6
:1002F80020E01FC0822F90E0E22FE695F0E0EE0F9D
:10030800FF1F41E050E04C0F5D1FE40FF51F428DC9
:10031800338DE1E0F0E0EC0FFD1FE80FF91F40839B
:100328000196E1E0F0E0EC0FFD1FE80FF91F3083C4
:100338002E5F2631F8F220E04AE1BE016F5F7F4F61
:1003480089E60E94AE04E4960FB6F894DEBF0FBEAD
:08035800CDBFDF91CF910895A4
:10036000CF93DF93CDB7DEB7AC970FB6F894DEBF6F
:100370000FBECDBF8EEE9EEE988F8F8B62E070E049
:100380007A8F698F80E80E94BA079C8F8B8F64E018
:1003900070E07E8F6D8F80E80E94BA0798A38F8FE0
:1003A00066E070E07AA369A380E80E94BA079CA384
:1003B0008BA368E070E07EA36DA380E80E94BA077B
:1003C00098A78FA36AE070E07AA769A780E80E94E7
:1003D000BA079CA78BA720E01FC0822F90E0E22FD6
:1003E000E695F0E0EE0FFF1F41E050E04C0F5D1F7F
:1003F000E40FF51F46893789E1E0F0E0EC0FFD1FBF
:10040000E80FF91F40830196E1E0F0E0EC0FFD1FDB
:10041000E80FF91F30832E5F2631F8F220E046E125
:10042000BE016F5F7F4F89E60E94AE04AC960FB6A7
:0E043000F894DEBF0FBECDBFDF91CF910895CF
:10043E0010C00E94AC0758F00E94A50740F029F4A6
:10044E005F3F29F00C94C70751110C94B4070C941C
:10045E00E3070E94A90568F39923B1F3552391F39D
:10046E00951B550BBB27AA2762177307840738F015
:10047E009F5F5F4F220F331F441FAA1FA9F335D072
:10048E000E2E3AF0E0E832D091505040E695001C26
:10049E00CAF72BD0FE2F29D0660F771F881FBB1FE0
:1004AE00261737074807AB07B0E809F0BB0B802DBE
:1004BE00BF01FF2793585F4F3AF09E3F510578F0EA
:1004CE000C94C7070C94B4075F3FE4F3983ED4F343
:1004DE00869577956795B795F7959F5FC9F7880FBE
:1004EE00911D9695879597F90895E1E0660F771F10
:1004FE00881FBB1F621773078407BA0720F0621BA1
:0E050E00730B840BBA0BEE1F88F7E09508956F
:10051C000FC00E94A50738F00E94AC0720F095236D
:10052C0011F00C94C7070C94E30711240C94B40736
:10053C000E94A90570F3959FC1F3950F50E0551FCC
:10054C00629FF001729FBB27F00DB11D639FAA271C
:10055C00F00DB11DAA1F649F6627B00DA11D661F6B
:10056C00829F2227B00DA11D621F739FB00DA11D8C
:10057C00621F839FA00D611D221F749F3327A00D46
:10058C00611D231F849F600D211D822F762F6A2FE2
:10059C0011249F5750409AF0F1F088234AF0EE0F47
:1005AC00FF1FBB1F661F771F881F91505040A9F774
:1005BC009E3F510580F00C94C7070C94B4075F3F25
:1005CC00E4F3983ED4F3869577956795B795F795B0
:1005DC00E7959F5FC1F7FE2B880F911D9695879528
:0405EC0097F90895DE
:1005F000CF93DF93CDB7DEB760970FB6F894DEBF29
:100600000FBECDBF8DED9CEC9A878987E0E0F1E0CD
:10061000838D948D9C878B87858D968D9E878D8706
:10062000878D90A1988B8F8720E01FC0822F90E04C
:10063000E22FE695F0E0EE0FFF1F41E050E04C0F97
:100640005D1FE40FF51F40853185E1E0F0E0EC0F20
:10065000FD1FE80FF91F40830196E1E0F0E0EC0F89
:10066000FD1FE80FF91F30832E5F2830F8F220E0DD
:1006700048E0BE016F5F7F4F89E60E94AE0460963E
:100680000FB6F894DEBF0FBECDBFDF91CF910895B6
:100690006AEA7AEA89E60E94A5060E94320720EA01
:1006A00036E841E050E060E072E18AE790E00E94C5
:1006B00022078AE00E94E00780EB94E00E94C903D1
:1006C00084E690E00E94050484E00E94410781E0F6
:1006D0000E94CA068FE10E94500783E00E94000733
:1006E00081E00E946D070E9486006BEB7BEB89E640
:1006F0000E94A50680912101873039F40E94B80636
:1007000088B1805888B9109221010E945F078895AE
:0807100083B78E7F83BFEECF9B
:10071800E89409C097FB3EF4909580957095619593
:100728007F4F8F4F9F4F9923A9F0F92F96E9BB2749
:100738009395F695879577956795B795F111F8CFC5
:10074800FAF4BB0F11F460FF1BC06F5F7F4F8F4F30
:100758009F4F16C0882311F096E911C0772321F026
:100768009EE8872F762F05C0662371F096E8862FBE
:1007780070E060E02AF09A95660F771F881FDAF715
:0A078800880F9695879597F908955C
:10079200CF92DF92EF92FF920F931F93CF93DF934B
:1007A2008C01C0E0D1E0698170E080E090E00E94BD
:1007B2008E039B01AC016AE077ED83EA9BE30E9422
:1007C200D80720E030E04AE754E40E94DC076B01DE
:1007D2007C01B80180E090E00E948C03A7019601A1
:1007E2000E94D8070E94DD047B836A836A817B8131
:1007F20088E10E942806DF91CF911F910F91FF900F
:08080200EF90DF90CF90089504
:10080A00CF92DF92EF92FF920F931F93CF93DF93D2
:10081A008C01C0E0D1E0698170E080E090E00E9444
:10082A008E039B01AC016DEC7CEC8CEC9AE30E948C
:10083A00D80720E030E04AE754E40E94DC076B0165
:10084A007C01B80180E090E00E948C03A701960128
:10085A000E94D8070E94DD047987688768857985B0
:10086A008EE10E942806DF91CF911F910F91FF9090
:08087A00EF90DF90CF9008958C
:10088200EF92FF920F931F93CF93DF938B01D42F9D
:1008920061E00E947A04882371F0682F70E080E0A2
:1008A20090E020C07801EC0EF11C0E946C06F7016A
:1008B2008083CF5F01C0C0E02C2F30E08D2F90E00D
:1008C20001972817390774F38D2F90E00197E801FB
:1008D200C80FD91F0E947F0688830E949D0760E08F
:1008E20070E0CB01DF91CF911F910F91FF90EF90BC
:0208F200089567
:1008F40094EA9093BC009091BC009923E4F7909102
:10090400B900987F983049F09091B900987F903160
:1009140021F08091B900887F089590E0880F991F95
:10092400862B8093BB0084E88093BC008091BC003C
:100934008823E4F78091B900887F883149F0809159
:10094400B900887F803431F08091B900887F0895A0
:0809540080E0089580E00895A1
:10095C00FF920F931F93CF93DF938B01D42FF22E23
:10096C0060E00E947A0481111CC0D23048F40CC0A3
:10097C00F801EC0FF11D80810E945806CF5F01C079
:10098C00C0E0CD17A8F304C0F80180810E9458067E
:10099C00811107C0F11004C00E949D0780E001C0C6
:0E09AC0080E0DF91CF911F910F91FF90089591
:1009BA000E94B10588F09F5798F0B92F9927B7512F
:1009CA00B0F0E1F0660F771F881F991F1AF0BA95E9
:1009DA00C9F714C0B13091F00E94B307B1E008958D
:1009EA000C94B307672F782F8827B85F39F0B93F7F
:1009FA00CCF3869577956795B395D9F73EF490959C
:0E0A0A008095709561957F4F8F4F9F4F089597
:100A1800CF93DF9362E070E080E80E94BA07C0E0FD
:100A2800D1E09A8B898B64E070E080E80E94BA0775
:100A38009C8B8B8B66E070E080E80E94BA079E8BE7
:100A48008D8B68E070E080E80E94BA07988F8F8BE2
:100A58006AE070E080E80E94BA079A8F898F0E9446
:080A6800B001DF91CF91089568
:100A70000F931F93CF93DF9300D0CDB7DEB7898359
:100A800000E011E0F801808121E041E0BE016F5FEC
:100A90007F4F0E94AE04F801808142E0BE016F5F8B
:100AA0007F4F0E9441048A8190E0982F88272981F6
:100AB000822B0F900F90DF91CF911F910F9108958E
:100AC000CF93DF93C0E0D1E069897A8982E090E03A
:100AD0000E94CD076B897C8984E090E00E94CD075D
:100AE0006D897E8986E090E00E94CD076F89788DC0
:100AF00088E090E00E94CD07698D7A8D8AE090E0D1
:0E0B00000E94CD070E94B001DF91CF910895B1
:100B0E00CF93DF9388E30E943805C0E0D1E09A8B43
:100B1E00898B89E30E9438059C8B8B8B80E10E9428
:100B2E0038059E8B8D8B87E10E943805988F8F8BB1
:100B3E0083E20E9438059A8F898F0E946005DF91AB
:040B4E00CF910895A6
:100B520057FD9058440F551F59F05F3F71F047956C
:100B6200880F97FB991F61F09F3F79F08795089551
:100B7200121613061406551FF2CF4695F1DF08C070
:100B8200161617061806991FF1CF8695710561058D
:040B92000894089526
:100B9600A1E21A2EAA1BBB1BFD010DC0AA1FBB1F7B
:100BA600EE1FFF1FA217B307E407F50720F0A21BED
:100BB600B30BE40BF50B661F771F881F991F1A945A
:100BC60069F760957095809590959B01AC01BD0184
:040BD600CF010895AE
:100BDA000F931F93CF93DF93D82F8B01C0E0B801F7
:100BEA008D2F0E9428068FEC97E00197F1F700C03D
:100BFA0000008D2F0E943805CF5F0817190711F0E2
:0E0C0A00C33068F3DF91CF911F910F910895D1
:100C18001F920F920FB60F9211248F93809121018A
:100C28008F5F809321010FB6F894A895809160009A
:100C3800886180936000109260000FBE8F910F90C2
:080C48000FBE0F901F901895DC
:100C5000CF93DF9300D00F92CDB7DEB789836A833D
:100C60007B838091000120E043E0BE016F5F7F4FF6
:100C70000E94AE040F900F900F90DF91CF910895D6
:100C8000CF93DF9385E00E943805C0E0D1E09C8FD0
:100C90008B8F80E10E9438059E8F8D8F81E10E94AD
:100CA000380598A38F8F0E94F802DF91CF910895A5
:100CB0008093BB0084E88093BC008091BC008823B3
:100CC000E4F78091B900887F883221F08091B900E3
:080CD000887F089580E008957B
:100CD80084EC8093BC008091BC008823E4F7809169
:100CE800B900887F803521F08091B900887F089508
:060CF8008091BB0008958D
:100CFE0084E88093BC008091BC008823E4F7809147
:100D0E00B900887F883521F08091B900887F0895D9
:060D1E008091BB00089566
:100D240087E10E9438052091170130911801282786
:100D3400392726FF06C0909318018093170181E09C
:060D4400089580E008950F
:100D4A00CF93DF9300D0CDB7DEB769837A8320E0F3
:100D5A0042E0BE016F5F7F4F0E94AE040F900F907A
:060D6A00DF91CF91089516
:100D70000E94C107892B11F00E9486000E949206F2
:100D800081110E9487050E9440060E943C010E943A
:040D9000B001089511
:100D9400EAE0F1E08295880F880F807C90819F7350
:100DA400892B808360910A0170910B0180E40E9479
:040DB4002806089570
:100DB800BA01A901DC01CB01FC01F999FECF06C0FB
:100DC800F2BDE1BDF89A319600B40D924150504001
:040DD800B8F70895CB
:100DDC00262FF999FECF92BD81BDF89A019700B4E8
:100DEC00021639F01FBA20BD0FB6F894FA9AF99A88
:040DFC000FBE089589
:100E0000EAE0F1E08295880F807E91819F71892BC5
:100E1000818360910A0170910B0180E40E94280691
:020E2000089533
:100E2200092E0394000C11F4882352F0BB0F40F4F6
:100E3200BF2B11F460FF04C06F5F7F4F8F4F9F4F36
:020E4200089511
:100E44001092B9000E94CB05DA01C9014097A109AB
:100E5400B109B695A795979587958093B80008959D
:100E6400F8948AB183608AB98BB183608BB987B1F6
:0E0E7400806887B988B1807888B9789408952D
:100E82008F70EAE0F1E09081907F892B80836091FE
:0E0E92000A0170910B0180E40E942806089569
:100EA0008F71ECE0F1E09081907E892B80836091DE
:0E0EB0000C0170910D018BE40E94280608953C
:100EBE00F89410927A000E94940783B7817F846021
:0C0ECE0083BF83B7816083BF78940895D0
:100EDA00EAE0F1E0908180FB95F9908360910A0144
:0C0EEA0070910B0180E40E94280608951E
:100EF600262FF999FECF1FBA92BD81BD20BD0FB630
:0C0F0600F894FA9AF99A0FBE019608952B
:100F1200EC010E94EB070E94EA07CE010E94EC0757
:060F2200CE010E94E80769
:100F280014BEE0E6F0E088E1808381E68083A8953E
:020F380008951A
:100F3A0084E98093BC008091BC0084FDFCCF0895B5
:0E0F4A0000240A9416161706180609060895C4
:0E0F580000240A9412161306140605060895C6
:0E0F6600E894BB2766277727CB0197F90895FB
:0E0F7400CB01A8E1B0E042E050E00C94E006B2
:0C0F820080E00E943805827099270895D5
:0C0F8E0097F99F6780E870E060E008952C
:0C0F9A000196272F0E94EF060C94EE0633
:0A0FA6000E947B07272F0C947C07A4
:080FB0000E941F020C941107BE
:080FB8000E948E020C94110747
:060FC00080930101089579
:060FC6009FEF80EC08958E
:040FCC000C94000081
:040FD0000E948400F7
:020FD40008957E
:020FD60008957C
:020FD80008957A
:100FDA00360AB80B61A50084400670601F01000044
:100FEA008000000000000000000000000000000077
:010FFA0000F6
:00000001FF
