:100000000C9456000C94BC040C94BC040C94BC04DA
:100010000C94BC040C94BC040C94BC040C94BC0460
:100020000C94BC040C94BC040C94BC040C94BC0450
:100030000C94BC040C94BC040C94BC040C94BC0440
:100040000C94BC040C94BC040C94BC040C94BC0430
:100050000C94BC040C94BC040C94BC040C94BC0420
:100060000C94BC040C94BC040C94BC040C94BC0410
:100070000C94BC040C94BC040C94BC040C94BC0400
:100080000C94BC040C94BC040C94BC040C94BC04F0
:100090000C94BC040C94BC040C94BC040C94BC04E0
:1000A0000C94BC040C94BC040C94BC0411241FBE1E
:1000B000CFEFDAE0DEBFCDBF0E9400010C949604C2
:0400C000F894FFCFE2
:1000C400FF920F931F93CF93DF93EC016BEB7BEBCA
:1000D40089E60E943F0460E070E080E00E94A90489
:1000E4008F3E9E4B11F4F12C09C0FF24F39406C0FB
:1000F4008FE19EE40197F1F700C000008DE30E94B8
:10010400610380FDF5CF8AEB0E9461038C0160E0FE
:1001140070E080E60E94D90360E070E08AEB0E9400
:10012400D90360E970E080E60E94D903688179818F
:1001340088E10E94D9036A817B818EE10E94D90300
:100144006C817D818AE30E94D9036E817F818BED6E
:100154000E94D90306C08FE19EE40197F1F700C025
:1001640000008BED0E9461039923ACF3FF20B1F0F2
:1001740088E30E9461039F878E8789E30E9461035D
:10018400998B888B888199819B8B8A8B1D8A1C8A89
:100194009F8B8E8BCE010E94F90203C0CE010E9478
:1001A400D0026E857F8588E30E94D90368897989A6
:1001B40089E30E94D9036A897B8980E10E94D9037B
:1001C4006C897D8987E10E94D9036E897F8983E2E6
:1001D4000E94D903B8018AEB0E94D9030E948604C5
:1001E40080E00E946103BC016D7F80E00E94810376
:0C01F400DF91CF911F910F91FF900895B3
:10020000CF93DF93CDB7DEB76E970FB6F894DEBF0E
:100210000FBECDBF8AB183608AB98BB18C7F8BB999
:100220008AB18C7F8AB920EA36E841E050E060E08C
:1002300072E18AE790E00E9476046AEA7AEA89E647
:100240000E943F0480E699E09A83898380E496E0E7
:100250009C838B8381E695EA9E838D8380E090EA80
:1002600098878F83CE0101960E9462002FEF80E76E
:1002700092E0215080409040E1F700C000000E94D1
:10028000B004892B21F0CE0101960E946200CE01BC
:1002900001960E94A003882321F0CE0101960E94BE
:1002A0001D03CE0101960E94F0030E946701CE015A
:1002B00001960E94B7010E94A2022FEF89E698E101
:0E02C000215080409040E1F700C00000D8CFF0
:1002CE00CF93DF93CDB7DEB766970FB6F894DEBF48
:1002DE000FBECDBF8DED89838A8362E070E080E82A
:1002EE000E94A90422E02B831C828D839E8364E0EE
:1002FE0070E080E80E94A90424E02F831886898785
:10030E009A8766E070E080E80E94A90426E02B87B9
:10031E001C868D879E8768E070E080E80E94A904A5
:10032E0028E02F87188A898B9A8B6AE070E080E824
:10033E000E94A9042AE02B8B1C8A8D8B9E8B20E0B9
:10034E0046E1BE016F5F7F4F89E60E94730266969B
:10035E000FB6F894DEBF0FBECDBFDF91CF910895DB
:10036E00CF93DF93CDB7DEB76A970FB6F894DEBFA3
:10037E000FBECDBFFC018CEC89838A8380818B8379
:10038E0081818C8382818D8383818E8384818F830F
:10039E00858188878681898787818A8780858B87F3
:1003AE0081858C8782858D8783858E8784858F87CF
:1003BE008585888B8685898B87858A8B80898B8BB3
:1003CE0081898C8B82898D8B83898E8B84898F8B8F
:1003DE008589888F8689898F87898A8F20E04AE16F
:1003EE00BE016F5F7F4F89E60E9473026A960FB659
:0E03FE00F894DEBF0FBECDBFDF91CF91089502
:10040C00EF92FF920F931F93CF93DF938B01D42F17
:10041C0061E00E943F02882371F0682F70E080E059
:10042C0090E020C07801EC0EF11C0E941904F70139
:10043C008083CF5F01C0C0E02C2F30E08D2F90E087
:10044C0001972817390774F38D2F90E00197E80175
:10045C00C80FD91F0E942C0488830E94A10460E05D
:10046C0070E0CB01DF91CF911F910F91FF90EF9036
:02047C000895E1
:10047E0094EA9093BC009091BC009923E4F790917C
:10048E00B900987F983049F09091B900987F9031DB
:10049E0021F08091B900887F089590E0880F991F10
:1004AE00862B8093BB0084E88093BC008091BC00B7
:1004BE008823E4F78091B900887F883149F08091D4
:1004CE00B900887F803431F08091B900887F08951B
:0804DE0080E0089580E008951C
:1004E600FF920F931F93CF93DF938B01D42FF22E9E
:1004F60060E00E943F0281111CC0D23048F40CC05B
:10050600F801EC0FF11D80810E940504CF5F01C048
:10051600C0E0CD17A8F304C0F80180810E9405044D
:10052600811107C0F11004C00E94A10480E001C03F
:0E05360080E0DF91CF911F910F91FF9008950B
:10054400CF93DF93CDB7DEB728970FB6F894DEBF0D
:100554000FBECDBF8BEB89838AEA8A8385E00E9434
:1005640061038B839C8380E10E9461038D839E835E
:1005740081E10E9461038F83988720E048E0BE01F7
:100584006F5F7F4F89E60E94730228960FB6F89436
:0C059400DEBF0FBECDBFDF91CF910895F8
:1005A000CF93DF93EC0162E070E080E80E94A90441
:1005B0009F878E8764E070E080E80E94A904998B91
:1005C000888B66E070E080E80E94A9049B8B8A8B90
:1005D00068E070E080E80E94A9049D8B8C8B6AE043
:1005E00070E080E80E94A9049F8B8E8BDF91CF91F1
:0205F00008956C
:1005F200CF93DF93EC016E857F8582E090E00E94CD
:10060200B6046889798984E090E00E94B6046A8918
:100612007B8986E090E00E94B6046C897D8988E03F
:1006220090E00E94B6046E897F898AE090E00E9481
:08063200B604DF91CF91089599
:10063A00CF93DF93EC0188E30E9461039F878E8743
:10064A0089E30E946103998B888B80E10E94610390
:10065A009B8B8A8B87E10E9461039D8B8C8B83E243
:10066A000E9461039F8B8E8BCE010E94F902DF915B
:04067A00CF9108957F
:10067E00A1E21A2EAA1BBB1BFD010DC0AA1FBB1F98
:10068E00EE1FFF1FA217B307E407F50720F0A21B0A
:10069E00B30BE40BF50B661F771F881F991F1A9477
:1006AE0069F760957095809590959B01AC01BD01A1
:0406BE00CF010895CB
:1006C200CF93DF9300D0CDB7DEB7898321E041E03D
:1006D200BE016F5F7F4F86E30E94730242E0BE015C
:1006E2006F5F7F4F86E30E9406028A8190E0982F17
:1006F20088272981822B0F900F90DF91CF91089547
:100702000F931F93CF93DF93D82F8B01C0E0B801D3
:100712008D2F0E94D9038FEC97E00197F1F700C06B
:1007220000008D2F0E946103CF5F0817190711F097
:0E073200C33068F3DF91CF911F910F910895AE
:100740000F931F93CF93DF93EC0187E10E94610326
:100750008C0167E189E60E94BF038C899D8980270F
:10076000912786FF04C01D8B0C8B81E003C01D8B7D
:0E0770000C8B80E0DF91CF911F910F910895C7
:10077E001F93CF93DF9300D0CDB7DEB7182F862F00
:10078E000E94610389839A8320E042E0BE016F5F7D
:10079E007F4F812F0E9473020F900F90DF91CF91A8
:0407AE001F910895FA
:1007B200CF93DF9300D00F92CDB7DEB789836A83E0
:1007C2007B8320E043E0BE016F5F7F4F86E30E94A0
:0E07D20073020F900F900F90DF91CF9108955A
:1007E000CF93DF93EC0185E00E94610399878887AE
:1007F00080E10E9461039B878A8781E10E946103F7
:0A0800009D878C87DF91CF9108954A
:10080A008093BB0084E88093BC008091BC0088235D
:10081A00E4F78091B900887F883221F08091B9008D
:08082A00887F089580E0089525
:1008320084EC8093BC008091BC008823E4F7809113
:10084200B900887F803521F08091B900887F0895B2
:060852008091BB00089537
:1008580084E88093BC008091BC008823E4F78091F1
:10086800B900887F883521F08091B900887F089584
:060878008091BB00089511
:10087E00CF93DF9300D0CDB7DEB769837A8320E0C4
:10088E0042E0BE016F5F7F4F0E9473020F900F9088
:06089E00DF91CF910895E7
:1008A400BA01A901DC01CB01FC01F999FECF06C014
:1008B400F2BDE1BDF89A319600B40D92415050401A
:0408C400B8F70895E4
:1008C800262FF999FECF92BD81BDF89A019700B401
:1008D800021639F01FBA20BD0FB6F894FA9AF99AA1
:0408E8000FBE0895A2
:1008EC001092B9000E943F03DA01C9014097A10997
:1008FC00B109B695A795979587958093B8000895FB
:10090C0064E770E680E40E94D9036FE171E08BE448
:10091C000E94D90360E070E887E30E94D903089530
:10092C00EC010E94C1040E94C004CE010E94C204CA
:06093C00CE010E94BE0482
:1009420084E98093BC008091BC0084FDFCCF0895B3
:0E095200CB01A8E1B0E042E050E00C94560466
:0C09600080E00E946103827099270895D6
:0C096C000196272F0E9465040C9464047F
:040978000C940000DB
:04097C000E94600075
:020980000895D8
:020982000895D6
:020984000895D4
:00000001FF
