:100000000C9456000C9471030C9471030C947103BE
:100010000C9471030C9471030C9471030C94710390
:100020000C9471030C9471030C9471030C94710380
:100030000C9471030C9471030C9471030C94710370
:100040000C9471030C9471030C9471030C94710360
:100050000C9471030C9471030C9471030C94710350
:100060000C9471030C9471030C9471030C94710340
:100070000C9471030C9471030C9471030C94710330
:100080000C9471030C9471030C9471030C94710320
:100090000C9471030C9471030C9471030C94710310
:1000A0000C9471030C9471030C94710311241FBE02
:1000B000CFEFDAE0DEBFCDBF0E94F9000C94510310
:0400C000F894FFCFE2
:1000C400FF920F931F93CF93DF93EC0160E070E0F6
:1000D40080E00E9464038F3E9E4B11F4F12C09C012
:1000E400FF24F39406C08FE19EE40197F1F700C06A
:1000F40000008DE30E947A0280FDF5CF8AEB0E9416
:100104007A028C0160E070E080E60E94B90260E04F
:1001140070E08AEB0E94B90260E970E080E60E9418
:10012400B9026881798188E10E94B9026A817B8180
:100134008EE10E94B9026C817D818AE30E94B9023A
:100144006E817F818BED0E94B90206C08FE19EE42F
:100154000197F1F700C000008BED0E947A02992309
:10016400ACF3FF20B1F088E30E947A029F878E8768
:1001740089E30E947A02998B888B888199819B8B71
:100184008A8B1D8A1C8A9F8B8E8BCE010E9434021F
:1001940003C0CE010E940B026E857F8588E30E9416
:1001A400B9026889798989E30E94B9026A897B89DD
:1001B40080E10E94B9026C897D8987E10E94B902BD
:1001C4006E897F8983E20E94B902B8018AEB0E949A
:1001D400B90280E00E947A02BC016D7F80E00E9437
:0E01E4009A02DF91CF911F910F91FF90089525
:1001F200CF93DF93CDB7DEB768970FB6F894DEBF23
:100202000FBECDBF8AB183608AB98BB18C7F8BB9A7
:100212008AB18C7F8AB920E83AE146E050E060E09A
:1002220072E18AE790E00E9441036AEA7AEA89E68B
:100232000E940A0380E699E09A83898380E496E02B
:100242009C838B8381E695EA9E838D8380E090EA8E
:1002520098878F83CE0101960E9462002FEF80E77C
:1002620092E0215080409040E1F700C000000E94DF
:04027200A801FDCF13
:10027600EF92FF920F931F93CF93DF938B01D42FAF
:1002860061E00E947401882371F0682F70E080E0BD
:1002960090E020C07801EC0EF11C0E94E402F70108
:1002A6008083CF5F01C0C0E02C2F30E08D2F90E01F
:1002B60001972817390774F38D2F90E00197E8010D
:1002C600C80FD91F0E94F70288830E945C0360E072
:1002D60070E0CB01DF91CF911F910F91FF90EF90CE
:0202E600089579
:1002E80094EA9093BC009091BC009923E4F7909114
:1002F800B900987F983049F09091B900987F903173
:1003080021F08091B900887F089590E0880F991FA7
:10031800862B8093BB0084E88093BC008091BC004E
:100328008823E4F78091B900887F883149F080916B
:10033800B900887F803431F08091B900887F0895B2
:0803480080E0089580E00895B3
:10035000CF9360E070E287E30E94B902C0E015C06D
:1003600061E070E00C2E02C0660F771F0A94E2F77E
:1003700084E60E94B9022FEF89E698E1215080407F
:100380009040E1F700C00000CF5FC43048F360E068
:1003900070E084E60E94B90260E070E887E30E94A2
:1003A000B9022FEF89E698E1215080409040E1F7B3
:0803B00000C00000CF91089588
:1003B800FF920F931F93CF93DF938B01D42FF22ECD
:1003C80060E00E94740181111CC0D23048F40CC056
:1003D800F801EC0FF11D80810E94D002CF5F01C0AF
:1003E800C0E0CD17A8F304C0F80180810E94D002B4
:1003F800811107C0F11004C00E945C0380E001C0B5
:0E04080080E0DF91CF911F910F91FF9008953A
:10041600CF93DF93EC0162E070E080E80E94640312
:100426009F878E8764E070E080E80E946403998B62
:10043600888B66E070E080E80E9464039B8B8A8B61
:1004460068E070E080E80E9464039D8B8C8B6AE014
:1004560070E080E80E9464039F8B8E8BDF91CF91C2
:020466000895F7
:10046800CF93DF93EC016E857F8582E090E00E9458
:100478006B036889798984E090E00E946B036A893C
:100488007B8986E090E00E946B036C897D8988E017
:1004980090E00E946B036E897F898AE090E00E9459
:0804A8006B03DF91CF91089571
:1004B000A1E21A2EAA1BBB1BFD010DC0AA1FBB1F68
:1004C000EE1FFF1FA217B307E407F50720F0A21BDA
:1004D000B30BE40BF50B661F771F881F991F1A9447
:1004E00069F760957095809590959B01AC01BD0171
:0404F000CF0108959B
:1004F400CF93DF9300D0CDB7DEB7898321E041E00D
:10050400BE016F5F7F4F86E30E94DC0142E0BE01C3
:100514006F5F7F4F86E30E943B018A8190E0982FB2
:1005240088272981822B0F900F90DF91CF91089516
:100534000F931F93CF93DF93D82F8B01C0E0B801A3
:100544008D2F0E94B9028FEC97E00197F1F700C05C
:1005540000008D2F0E947A02CF5F0817190711F04F
:0E056400C33068F3DF91CF911F910F9108957E
:10057200CF93DF9300D00F92CDB7DEB789836A8322
:100582007B8320E043E0BE016F5F7F4F86E30E94E2
:0E059200DC010F900F900F90DF91CF91089534
:1005A0008093BB0084E88093BC008091BC008823CA
:1005B000E4F78091B900887F883221F08091B900FA
:0805C000887F089580E0089592
:1005C80084EC8093BC008091BC008823E4F7809180
:1005D800B900887F803521F08091B900887F08951F
:0605E8008091BB000895A4
:1005EE0084E88093BC008091BC008823E4F780915E
:1005FE00B900887F883521F08091B900887F0895F1
:06060E008091BB0008957D
:10061400CF93DF9300D0CDB7DEB769837A8320E030
:1006240042E0BE016F5F7F4F0E94DC010F900F908C
:06063400DF91CF91089553
:10063A00BA01A901DC01CB01FC01F999FECF06C080
:10064A00F2BDE1BDF89A319600B40D924150504086
:04065A00B8F7089550
:10065E00262FF999FECF92BD81BDF89A019700B46D
:10066E00021639F01FBA20BD0FB6F894FA9AF99A0D
:04067E000FBE08950E
:100682001092B9000E945802DA01C9014097A109EB
:10069200B109B695A795979587958093B800089567
:1006A200EC010E9476030E947503CE010E9477033B
:0606B200CE010E9473035B
:1006B80084E98093BC008091BC0084FDFCCF089540
:0E06C800CB01A8E1B0E042E050E00C94210329
:0C06D6000196272F0E9430030C942F0384
:0406E2000C94000074
:0406E6000E9460000E
:0206EA00089571
:0206EC0008956F
:0206EE0008956D
:00000001FF
