:100000000C9456000C9475020C9475020C947502B5
:100010000C9475020C9475020C9475020C94750284
:100020000C9475020C9475020C9475020C94750274
:100030000C9475020C9475020C9475020C94750264
:100040000C9475020C9475020C9475020C94750254
:100050000C9475020C9475020C9475020C94750244
:100060000C9475020C9475020C9475020C94750234
:100070000C9475020C9475020C9475020C94750224
:100080000C9475020C9475020C9475020C94750214
:100090000C9475020C9475020C9475020C94750204
:1000A0000C9475020C9475020C94750211241FBEF9
:1000B000CFEFDAE0DEBFCDBF0E9462000C94660293
:0400C000F894FFCFE2
:1000C400CF93DF9300D000D0CDB7DEB78BB188607B
:1000D4008BB98AB188608AB98AB183608AB98BB1D5
:1000E4008C7F8BB98AB18C7F8AB920E83AE146E0EB
:1000F40050E060E072E18AE790E00E94560217E364
:10010400198321E041E0BE016F5F7F4F86E30E94C7
:10011400550142E0BE016F5F7F4F86E30E941101EB
:1001240020E042E0BE016F5F7F4F89E60E945501E7
:1001340019831A8280E68B8320E043E0BE016F5F5F
:100144007F4F86E30E945501198321E041E0BE01FF
:100154006F5F7F4F86E30E94550142E0BE016F5FEF
:100164007F4F86E30E94110120E042E0BE016F5FF1
:100174007F4F89E60E94550110E034C004E60983EC
:1001840081E0012E01C0880F0A94EAF78A831B825A
:1001940020E043E0BE016F5F7F4F86E30E9455017C
:1001A400098321E041E0BE016F5F7F4F86E30E9437
:1001B400550142E0BE016F5F7F4F86E30E9411014B
:1001C40020E042E0BE016F5F7F4F89E60E94550147
:1001D4002FEF89E698E1215080409040E1F700C07C
:1001E40000001F5F143050F22DED3CEC4BEB5AEA4B
:1001F40064E0CE0101960E948C0120E044E0BE013F
:100204006F5F7F4F89E60E9455012FEF80E792E0F0
:0E021400215080409040E1F700C0000070CF04
:10022200EF92FF920F931F93CF93DF93C82F8B010F
:10023200D42F0E940302882329F0682F70E080E007
:1002420090E02BC061E08C2F0E94E401882371F0C2
:10025200682F70E080E090E020C07801EC0EF11C85
:100262000E943002F7018083CF5F01C0C0E02C2FD3
:1002720030E08D2F90E001972817390774F38D2F06
:1002820090E00197E801C80FD91F0E9443028883BA
:100292000E94710260E070E0CB01DF91CF911F916B
:0802A2000F91FF90EF90089509
:1002AA00FF920F931F93CF93DF93C82F8B01D42F05
:1002BA00F22E0E940302811124C060E08C2F0E945A
:1002CA00E40181111EC0D23058F40EC0F801EC0FBF
:1002DA00F11D80810E941C02811113C0CF5F01C0F1
:1002EA00C0E0CD1798F306C0F80180810E941C0275
:1002FA00811107C0F11004C00E94710280E001C0A0
:0E030A0080E0DF91CF911F910F91FF90089539
:10031800CF92DF92EF92FF920F931F93DC01862F0B
:1003280089019A01633010F19FEF960F1CC0492F85
:10033800092E000C550BE82FF0E0E41BF50B319764
:10034800EA0FFB1F440F551F440F551F440F551F3D
:100358006801790104C0F694E794D794C7944A9544
:10036800D2F7C0829150992314F701C00C931F91C2
:0C0378000F91FF90EF90DF90CF90089560
:10038400A1E21A2EAA1BBB1BFD010DC0AA1FBB1F95
:10039400EE1FFF1FA217B307E407F50720F0A21B07
:1003A400B30BE40BF50B661F771F881F991F1A9474
:1003B40069F760957095809590959B01AC01BD019E
:0403C400CF010895C8
:1003C80090E0880F991F862B8093BB0084E8809368
:1003D800BC008091BC008823E4F78091B900887F35
:1003E800883149F08091B900887F803431F080915C
:0E03F800B900887F089580E0089580E00895A0
:1004060084EA8093BC008091BC008823E4F7809145
:10041600B900887F883049F08091B900887F8031A3
:1004260031F08091B900887F089580E0089580E0DA
:02043600089527
:100438008093BB0084E88093BC008091BC00882333
:10044800E4F78091B900887F883221F08091B90063
:08045800887F089580E00895FB
:1004600084EC8093BC008091BC008823E4F78091E9
:10047000B900887F803521F08091B900887F089588
:060480008091BB0008950D
:1004860084E88093BC008091BC008823E4F78091C7
:10049600B900887F883521F08091B900887F08955A
:0604A6008091BB000895E7
:1004AC001092B9000E94C201DA01C9014097A1095A
:1004BC00B109B695A795979587958093B80008953F
:1004CC00EC010E947A020E947902CE010E947B020A
:0604DC00CE010E94770230
:0804E20084E98093BC00089539
:0404EA000C9400006E
:0404EE000E94600008
:0204F20008956B
:0204F400089569
:0204F600089567
:00000001FF
